:020000040000FA
:0600000045EF10F01200B4
:02002A000000D4
:04002C0001013E513F
:10003000010A01E0120060C063F161C064F162C0B6
:1000400065F163C066F149EC0EF03CC1E9FF3DC1CA
:10005000EAFFEE50EFCFEAFFE96E67C1EEFF68C13D
:10006000EEFF69C1EEFF6AC1EEFF120001013E51D1
:10007000010A01E0120064C063F165C064F166C06A
:1000800065F167C066F149EC0EF03CC1E9FF3DC186
:10009000EAFFEE50EFCFEAFFE96E67C1EEFF68C1FD
:1000A000EEFF69C1EEFF6AC1EEFF12004AC160F0C7
:1000B0000001616B626B636B060E6127000E6223A9
:1000C00063234AC163F161C064F162C065F163C03A
:1000D00066F10CEC0EF067C160F068C161F069C1B7
:1000E00062F06AC163F04AC164F00001656B666B3F
:1000F000676B800E6427050E6523000E6623672359
:1001000064C063F165C064F166C065F167C066F103
:100110000CEC0EF067C164F068C165F069C166F06F
:100120006AC167F06FCFCDF00001400E9A6F60C0DA
:100130009BF061C09CF062C09DF063C09EF015EC26
:100140000AF09FC068F00001685102E001014E8191
:100150000001696B12006FCFCDF068C09AF045ECDA
:100160000AF001014E911200000169AB10D0080E97
:100170007A5F000E7B5B7B3504E27A510008000E4B
:100180007B5505E3696B020E6A6F01015281120013
:1001900064C061FF65C062FF66C063FF67C064FF43
:1001A000080E656E00016A5111E192C066FF93C0AE
:1001B00067FF94C068FF95C069FF96C06AFF97C04B
:1001C0006BFF98C06CFF99C06DFF1200800E666EC9
:1001D00072C067FF73C068FF74C069FF6A51190A73
:1001E00001E19AD0010A01E194D00F0A01E18ED019
:1001F000010A01E188D0030A01E17DD0010A01E191
:1002000077D0070A72E0010A6DE0030A68E0010A8C
:1002100060E01F0A5BE0010A56E0030A4EE0010AB3
:1002200046E0070A41E0010A3CE0030A37E0010A20
:1002300030E00F0A28E0010A21E0030A1CE0010A6D
:1002400012E0070A0DE0010A08E0030A01E01200CB
:100250000F016A6A6B6A030E0BD00F016A6A06D03F
:100260000F01010E02D00F01050E6A6E6B6A040EBB
:100270006C6E050E57D00F016A6A08D00F01010E8F
:100280006A6E6B6A3DD00F01020E6A6E6B6A010ED8
:1002900037D00F016A6A6B6A020E32D00F01410E2D
:1002A00008D00F01420E05D00F01430E02D00F01FE
:1002B000470E6A6E6B6A040E23D00F016A6A6B6A7E
:1002C000060E6C6E2FD00F01100E05D00F01120E0E
:1002D00002D00F01130E6A6E6B6A070E11D00F0168
:1002E000110E0BD00F01300E08D00F01310E05D0CA
:1002F0000F01320E02D00F01360E6A6E6B6A090EC4
:100300006C6E060E0FD00F016A6A09D00F01200E25
:1003100005D00F01210E02D00F01220E6A6E6B6A0A
:100320006C6A080E6D6E12000F0E6514080801E06D
:100330007FD100016A6B66CF6BF0E00E6B15800A0F
:1003400001E170D1E00A01E10CD1200A01E1AED057
:10035000600A47E0200A01E067D169AB69D169AD65
:1003600067D169516B19100B01E003D17E0E702526
:10037000E96E000E7121EA6E67CFEEFF68CFEEFFE7
:1003800069CFEEFF6ACFEEFF6BCFEEFF6CCFEEFFD3
:100390006DCFEEFF6B510E0BE842E81C070B146E9D
:1003A000156AE8507027155071237051765D7151B0
:1003B000775902E2696B67D06979200E6B11F00BF7
:1003C000926F6BA12CD17E0E6C6F000E6D6F0101D0
:1003D0006C0E3C6F000E3D6FBAEC03F00001696BD0
:1003E0001CD1699B67CF72F067CF93F068CF73F031
:1003F00068CF94F069CF74F069CF95F0966B976BE6
:10040000986B996B01016C0E3C6F000E3D6F17EC01
:1004100004F001013F5101E000D1000175A344D077
:100420006BA326D06BA10AD06B510C0BE842E842BB
:10043000E81C030B010F6E6F6F6B04D076C06EF07B
:1004400077C06FF076516E191EE177516F191BE17D
:10045000696B6A0E6C6F0F0E6D6F01016C0E3C6F55
:10046000000E3D6FBAEC03F00001600E926FD5D024
:100470006BA10BD06C506D1006E176516A1802E149
:1004800077516B1802E00E0E76D076C06EF077C012
:100490006FF0698B698D6999706B716BF40E7A6F6F
:1004A000010E7B6F600E38D0070E65D0699B67CF59
:1004B00072F067CF93F068CF73F068CF94F069CF94
:1004C00074F069CF95F0966B976B986B996B0101FF
:1004D0006C0E3C6F000E3D6F17EC04F001013F51B4
:1004E00001E09BD0000175A13AD0706B716B696B14
:1004F000040ED8807655000E775510E2F40E7A6F10
:10050000010E7B6F698B960E6C6F000E6D6F76C05F
:1005100096F077C097F0410E926F81D07651040A21
:100520000CE0070A08E0010A04E0030A08E14F0EA4
:1005300005D04B0E03D0470E01D0430E926F76C00C
:100540006EF077C06FF0960E6C6F000E6D6F01014C
:100550006C0E3C6F000E3D6F19EC03F05ED0060E82
:100560000AD069AB65D069BD63D069516B19100BB6
:1005700004E0696B010E6A6F52D0930E6C6F000E2F
:100580006D6F7051765D7C6F715177597D6F070E7D
:10059000D8807C55000E7D5502E2926B29D0696BA4
:1005A0007C51070A23E0010A1DE0030A18E0010A52
:1005B00012E0070A0CE0010A06E0030A1CE10D0E36
:1005C000926F010E16D00B0E926F020E12D0090E12
:1005D000926F030E0ED0070E926F040E0AD0050E16
:1005E000926F07D0030E926F060E03D0010E926F2A
:1005F000070E6E6F6F6B6BB902D0929901D0928922
:1006000001016C0E3C6F000E3D6F19EC03F0000110
:100610006E5170276F51712369793FC16AF00101F2
:1006200052811200696B1200030E6A6F0101528140
:020630001200B6
:0E0632003CC1E9FF3DC1EAFF090EEB50000993
:1006400001E195D03CC1E9FF3DC1EAFF090EEB5045
:10065000100B18E001013F6B010E3E6F3CC1E9FF3A
:100660003DC1EAFF0C0EE926000EEA22EECF14F09F
:10067000EFCF15F005D015C0FAFF00011450F96E48
:10068000FADF12003CC1E9FF3DC1EAFF090EEB5061
:10069000070B010A36E0020A34E0060A64E13CC1B5
:1006A000E9FF3DC1EAFF020EE926000EEA22EECF85
:1006B00061F1EDCF62F13CC1E9FF3DC1EAFFEECF50
:1006C0005FF1EDCF60F13CC1E9FF3DC1EAFF0C0EE7
:1006D000E926000EEA22EECF14F0EFCF15F03CC170
:1006E000E9FF3DC1EAFF040EE926000EEA2214509C
:1006F000EE2401015D6F1550EE205E6F58EC0BF09B
:1007000036D03CC1E9FF3DC1EAFF020EE926000EEA
:10071000EA22EECF5BF1EDCF5CF13CC1E9FF3DC1D8
:10072000EAFFEECF59F1EDCF5AF13CC1E9FF3DC1EF
:10073000EAFF0C0EE926000EEA22EECF14F0EFCF0E
:1007400015F03CC1E9FF3DC1EAFF040EE926000EA9
:10075000EA221450EE240101576F1550EE20586F15
:1007600089EC0AF004D00101060E3F6F120001016E
:100770003F6B12003CC1E9FF3DC1EAFF090EEB509F
:10078000000952E03CC1E9FF3DC1EAFF090EEB5010
:10079000100B18E001013F6B020E3E6F3CC1E9FFF8
:1007A0003DC1EAFF0C0EE926000EEA22EECF14F05E
:1007B000EFCF15F005D015C0FAFF00011450F96E07
:1007C000FADF12003CC1E9FF3DC1EAFF090EEB5020
:1007D000070B030A02E0010A23E13CC1E9FF3DC126
:1007E000EAFF020EE926000EEA22EECF5BF1EDCF22
:1007F0005CF13CC1E9FF3DC1EAFF0C0EE926000EA9
:10080000EA22EECF59F1EDCF5AF13CC1E9FF3DC1EB
:10081000EAFFEECF57F1EDCF58F189EC0AF004D0A2
:100820000101070E3F6F120001013F6B12003CC136
:10083000E9FF3DC1EAFF060EE926000EEA22EECFEF
:1008400047F1EECF48F1EFCF49F1F00E0101481525
:10085000100A3AE0800A34E0100A2EE0F00A28E09C
:10086000100A20E0300A1AE0100A14E0700A0EE0C4
:10087000100A08E0200A5FE1BE0E406F170E416FBC
:10088000070E57D03E0E406F190E3BD04E0E406FF4
:10089000190E37D05E0E406F190E33D06E0E406FBA
:1008A000190E2FD07E0E406F190E416F0E0E41D0E3
:1008B000EE0E406F190E25D0FE0E406F190E21D09E
:1008C0000E0E406F1A0E1DD00F0E48150A0A2AE0B0
:1008D000020A20E00E0A18E0020A0EE0060A08E00A
:1008E000020A29E1F60E406F170E416F0F0E21D05C
:1008F0006E0E406F180E13D047511DE1860E406FEB
:10090000180E416F020E15D0475115E1960E406F3B
:10091000180E0DD047510FE1DE0E406F180E416FDB
:10092000030E07D0475107E1F60E406F180E416FD6
:10093000090E426F03D0080E3F6F1200080E3F6F82
:1009400040C1F6FF41C1F7FF0900F5CF43F10900AF
:10095000F5CF44F10900F5CF45F10800F5CF46F198
:1009600042516BE04851445D62E14751435D5FE1B4
:10097000110E3F6F4951455D03E0400E461557E0AB
:1009800040C1F6FF41C1F7FF0900F5CF14F009009F
:10099000F5CF15F00900F5CF16F00900F5CF17F0E7
:1009A0000900F5CF18F00900F5CF19F00900F5CFCF
:1009B0001AF00800F5CF1BF03CC1E9FF3DC1EAFF8A
:1009C000060EE926000EEA2214C0EEFF15C0EEFF67
:1009D00016C0EEFF17C0EEFF18C0EEFF19C0EEFF05
:1009E0001AC0EEFF1BC0EEFF46AD07D03CC1E9FFC9
:1009F0003DC1EAFF080E49C1EBFF46A916D03F6B87
:100A00003E6B3CC1E9FF3DC1EAFF0C0EE926000E3A
:100A1000EA22EECF14F0EFCF15F005D015C0FAFFA3
:100A200000011450F96EFADF12003F6B1200080E3D
:0C0A30004027000E4123420783D712002C
:040A3C00C10EC26EB7
:100A4000C16A8B6A946A8B8801011969006B016B1A
:100A5000010E026F036B046B056F076B07C106F194
:100A6000086B08C110F1096B09C111F10A6B0AC1C9
:100A700012F10B6B0BC113F10C6B0CC114F10D6B6C
:100A80000DC115F10E6B0EC116F14AC163F10101E2
:100A9000646B656B666B800E6327010E6423000E2A
:100AA0006523C00E66230CEC0EF067C122F168C10D
:100AB00023F169C124F16AC125F14AC163F1010141
:100AC000646B656B666B020E6427000E6523C00EB7
:100AD00066230CEC0EF067C11EF168C11FF169C1FD
:100AE00020F16AC121F10101070E2A6F010E2B6F5F
:100AF0000F0E276F010E286F080E296F12000101DB
:100B0000195106E11751040B03E0179517811200E4
:100B1000010E195D10E31951146E156A153404E2C3
:100B20001450F008000E155406E31807185103E19D
:100B300019C118F117811200010107918150200B92
:100B400001E0078107938150100B01E007830651F4
:100B500007191A6F03511A1507151B6F071D146E1D
:100B600004511A1514141C6F02511A151A6F07C17B
:100B700006F1E8501B111C11051501E0178317A39E
:100B80000AD01951FE0A06E0010A04E0FF0A03E157
:100B9000178501D0178101015351010B09E10101B2
:100BA0001751010B05E001015381010117911793C2
:100BB000010156A103D00FC18BFF56911200010114
:100BC0003E51020A1EE0030A01E012001EC163F159
:100BD0001FC164F120C165F121C166F149EC0EF03D
:100BE0003CC1E9FF3DC1EAFFEE50EFCFEAFFE96EFD
:100BF00067C1EEFF68C1EEFF69C1EEFF6AC1EEFF9B
:100C000012003CC1E9FF3DC1EAFFEE50EFCFEAFF21
:100C1000E96EEECF63F1EECF64F1EECF65F1EFCF89
:100C200066F10CEC0EF0010168A91ED01E0EE96EF3
:100C3000010EEA6E6751EE18146E6851EE18156ECB
:100C40006951EE18166E6A51EE18176E1598145009
:100C500015101610171026E101014FA102D0FFEC6C
:100C60000EF001011F8912001E0EE96E010EEA6EE0
:100C70006751EE18146E6851EE18156E6951EE1832
:100C8000166E6A51EE18176E15981450151016103E
:100C9000171008E101014FB102D0E8EC0EF001019C
:100CA0001F9912000101120E3F6F120001013E5107
:100CB000020A1EE0030A01E0120022C163F123C10F
:100CC00064F124C165F125C166F149EC0EF03CC127
:100CD000E9FF3DC1EAFFEE50EFCFEAFFE96E67C1E1
:100CE000EEFF68C1EEFF69C1EEFF6AC1EEFF1200C0
:100CF0003CC1E9FF3DC1EAFFEE50EFCFEAFFE96EEC
:100D0000EECF63F1EECF64F1EECF65F1EFCF66F198
:100D10000CEC0EF0010168A91CD0220EE96E010E48
:100D2000EA6E6751EE18146E6851EE18156E69512F
:100D3000EE18166E6A51EE18176E159814501510AD
:100D40001610171022E1010150B1509101012389C1
:100D50001200220EE96E010EEA6E6751EE18146E53
:100D60006851EE18156E6951EE18166E6A51EE183C
:100D7000176E1598145015101610171006E1010182
:100D800050A150810101239912000101120E3F6F01
:100D9000120001013E51020A0EE0030A01E01200B6
:100DA0003CC1E9FF3DC1EAFFEE50EFCFEAFFE96E3B
:100DB00019C1EFFF12003CC1E9FF3DC1EAFFEE504F
:100DC000EFCFEAFFE96EEFCF1DF1000E01011D5DCF
:100DD0000FE31D51146E156A153404E21450F00827
:100DE000000E155405E31DC119F11DC118F11200C3
:100DF0001D51146E156AFE0E141801E1155008E01D
:100E00001D51166E176AFF0E161805E1175003E103
:100E10001DC119F112000101120E3F6F12001200E4
:020E20001200BE
:0E0E220001013E51020A10E0030A01E0120035
:100E30003CC1E9FF3DC1EAFFEE50EFCFEAFFE96EAA
:100E400036C1EEFF37C1EDFF12003CC1E9FF3DC1E5
:100E5000EAFFEE50EFCFEAFFE96EEECF36F1EDCFCD
:100E600037F10101346B3651371107E0348336C155
:100E700031F137C132F1336B12003851391119E0B9
:100E80003A5117E0800E356F348534833A51146E31
:100E9000156A38C106F039C107F03AC10BF015C028
:100EA0000CF0FAEC0FF004C031F105C032F1010191
:100EB000336B120001013E51020A10E0030A01E007
:100EC00012003CC1E9FF3DC1EAFFEE50EFCFEAFF5F
:100ED000E96E38C1EEFF39C1EDFF12003CC1E9FFF8
:100EE0003DC1EAFFEE50EFCFEAFFE96EEECF38F1F9
:100EF000EDCF39F10101346B3651371107E03483FE
:100F000036C131F137C132F1336B1200385139112A
:100F100019E03A5117E0800E356F348534833A5129
:100F2000146E156A38C106F039C107F03AC10BF0EA
:100F300015C00CF0FAEC0FF004C031F105C032F12D
:100F40000101336B120001013E51020A0EE0030A57
:100F500001E012003CC1E9FF3DC1EAFFEE50EFCFD6
:100F6000EAFFE96E3AC1EFFF12003CC1E9FF3DC163
:100F7000EAFFEE50EFCFEAFFE96EEFCF3AF1010161
:100F8000346B3651371107E0348336C131F137C144
:100F900032F1336B12003851391119E03A5117E030
:100FA000800E356F348534833A51146E156A38C11A
:100FB00006F039C107F03AC10BF015C00CF0FAEC9D
:100FC0000FF004C031F105C032F10101336B1200A2
:100FD0004AC12DF101012E6B2F6B306B070E2E27AE
:100FE000000E2F2330234AC163F12EC164F12FC1BB
:100FF00065F130C166F10CEC0EF067C12DF168C1EE
:101000002EF169C12FF16AC130F10101346B365103
:1010100037110AE0348301014D8736C131F137C100
:1010200032F10101336B12003851391130E03A517D
:101030002EE06FCFCDF00001040E9A6F2DC19BF012
:101040002EC19CF02FC19DF030C19EF015EC0AF02E
:101050009FC03BF101013B511AE001014D870101A5
:10106000800E356F348534833A51146E156A38C159
:1010700006F039C107F03AC10BF015C00CF0FAECDC
:101080000FF004C031F105C032F10101336B1200E1
:101090006FCFCDF03BC19AF045EC0AF001014D97BE
:1010A0001200010134A51CD065AC1AD00F0E6514D6
:1010B000010816E10101518701013A51146E156AC8
:1010C00038C106F039C107F03AC10BF015C00CF079
:1010D000FAEC0FF004C031F105C032F10101336BBD
:1010E00012002DC161FF2EC162FF2FC163FF30C10D
:1010F00064FF010E656E010134B11AD0800E351502
:10110000356F34A502D0357F01D0359F01014BA545
:1011100002D0040E07D04BA302D0050E03D04BA182
:1011200004D07F0E01013511356F35C166FF120005
:101130003491666A1200010134A33DD0080E315F7C
:10114000000E325B335B3335000E331907E6D8806F
:10115000000E3155000E3255000E33552CE334B5D8
:1011600015D036C114F037C115F0166A310EE96E8C
:10117000010EEA6EEE501424316FEE501520326FDE
:10118000EE501620336F0101518712003A51146E50
:10119000156A38C106F039C107F03AC10BF015C025
:1011A0000CF0FAEC0FF004C031F105C032F101018E
:0811B000336B65EC10F0120036
:0811B8000001CC5101E196D0C9
:1011C000CC51020A01E188D0030A01E012006EAEA0
:1011D00080D0A1510BE0A9C000FFAAC001FFABC0A5
:1011E00002FFACC003FF0D01D48102D00D01D491E8
:1011F0000001A2510BE0ADC004FFAEC005FFAFC0BF
:1012000006FFB0C007FF0D01D48302D00D01D493B7
:101210000001A3510BE0B1C008FFB2C009FFB3C089
:101220000AFFB4C00BFF0D01D48502D00D01D49587
:101230000001A4510BE0B5C00CFFB6C00DFFB7C054
:101240000EFFB8C00FFF0D01D48702D00D01D49757
:101250000001A5510BE0B9C010FFBAC011FFBBC01F
:1012600012FFBCC013FF0D01D48902D00D01D49927
:101270000001A6510BE0BDC014FFBEC015FFBFC0EA
:1012800016FFC0C017FF0D01D48B02D00D01D49BF7
:101290000001A7510BE0C1C060FDC2C061FDC3C029
:1012A00062FDC4C063FD0D01D48D02D00D01D49D3B
:1012B0000001A8510BE0C5C064FDC6C065FDC7C0F4
:1012C00066FDC8C067FD0D01D48F09D00D01D49F04
:1012D00006D0800E6F6E12006FAE06D04DD80001A2
:1012E000CC6BCDC06FFF1200800E6F6E120000013C
:1012F000CC6B400E6F6E800E6F6E3ED80D01F86B9A
:10130000606A0F01506B0E01206B306B406B506BAD
:10131000606B706B500E776E0D01D46BD56BD86B14
:10132000E06B110EE16F220EE26F330EE36F440E9D
:10133000E46F550EE56F660EE66F770EE76FF36BA1
:10134000F3CDF2FDF3CDF1FDF3CDF0FD0F01186902
:10135000E30E196F1A691B69200E736E0D011C0EC6
:10136000FC6FFA690001A16BA26BA36BA46BA56B68
:10137000A66BA76BA86B12000001A051080A11E030
:101380000F0A0FE0010A0DE0030A0BE0010A09E071
:10139000070A07E0010A05E0030A03E0010A07E182
:1013A00006D0410E706EBA0E716E070E05D0440E57
:1013B000706EBF0E716E170E726E12000F0140B785
:1013C00005D0430E776E9AC0C9F00DD030B705D066
:1013D000440E776E9AC0CAF006D020B707D0450EEB
:1013E000776E9AC0CBF09AC09FF0120000019F6BFD
:1013F00012000F0140AF06D0430E776E409FC9C068
:101400009FF0120030AF06D0440E776E409FCAC0E6
:101410009FF0120020AF06D0450E776E409FCBC0E4
:101420009FF0120000019F6B12000001CE6B080EAE
:10143000CE5D29E2CE51EA6AA10FE96E000EEA22E2
:10144000EF501FE1CE51EA6AA10FE96E000EEA22C9
:101450009AC0EFFF9AC09FF0CE51040DF3CFE9FF81
:10146000F4CFEAFFA90EE926000EEA229BC0EEFFA8
:101470009CC0EEFF9DC0EEFF9EC0EEFF010ECC6F44
:101480001200CE2BD4D79F6B12000001CF6B080E39
:10149000CF5D16E2CF51EA6AA10FE96E000EEA2293
:1014A000EF509A5D0BE1CF51EA6AA10FE96E000E91
:1014B000EA22EF6A010ECC6F9F6F1200CF2BE7D7A5
:1014C0009F6B1200A4A222D0500E776E60BE13D084
:1014D0000F0150AF02D0510E08D00E0120AF02D044
:1014E000520E03D030AF03D0530E776E04D00001FC
:1014F0009F6BA49212000F0E6014E96EEA6AA10EAF
:10150000E926000EEA22EFCF9FF0120000019F6B48
:021510001200C7
:0E15120001015B515C1101E1C9D0040E5B5D6B
:10152000000E5C5911E257C1E9FF58C1EAFFEF50C4
:1015300059C1E9FF5AC1EAFFEF6E592B000E5A2339
:10154000572B58235B07B1D0080E5B5D000E5C592A
:1015500022E257C1E9FF58C1EAFFEECF14F0EECF07
:1015600015F0EECF16F0EFCF17F059C1E9FF5AC1D1
:10157000EAFF14C0EEFF15C0EEFF16C0EEFF17C065
:10158000EEFF040E5927000E5A23040E5727000EB3
:101590005823040E88D0100E5B5D000E5C5932E2B9
:1015A00057C1E9FF58C1EAFFEECF14F0EECF15F0B6
:1015B000EECF16F0EECF17F0EECF18F0EECF19F019
:1015C000EECF1AF0EFCF1BF059C1E9FF5AC1EAFF85
:1015D00014C0EEFF15C0EEFF16C0EEFF17C0EEFF01
:1015E00018C0EEFF19C0EEFF1AC0EEFF1BC0EEFFE1
:1015F000080E5927000E5A23080E5727000E5823AD
:10160000080E51D057C1E9FF58C1EAFFEECF14F0E0
:10161000EECF15F0EECF16F0EECF17F0EECF18F0BC
:10162000EECF19F0EECF1AF0EECF1BF0EECF1CF09C
:10163000EECF1DF0EECF1EF0EECF1FF0EECF20F07C
:10164000EECF21F0EECF22F0EFCF23F059C1E9FF2A
:101650005AC1EAFF14C0EEFF15C0EEFF16C0EEFF40
:1016600017C0EEFF18C0EEFF19C0EEFF1AC0EEFF64
:101670001BC0EEFF1CC0EEFF1DC0EEFF1EC0EEFF44
:101680001FC0EEFF20C0EEFF21C0EEFF22C0EEFF24
:1016900023C0EEFF100E5927000E5A23100E5727B5
:1016A000000E5823100E5B5F000E5C5B32D71200F9
:1016B00001016151621101E17FD0040E615D000EF4
:1016C000625912E25DC1F6FF5EC1F7FF0800F550F6
:1016D0005FC1E9FF60C1EAFFEF6E5F2B000E602380
:1016E0005D2B5E23610766D0080E615D000E6259B6
:1016F00026E25DC1F6FF5EC1F7FF0900F5CF14F0E9
:101700000900F5CF15F00900F5CF16F00800F5CF68
:1017100017F05FC1E9FF60C1EAFF14C0EEFF15C01A
:10172000EEFF16C0EEFF17C0EEFF040E5F27000E9F
:101730006023040E5D27000E5E23040E39D05DC1C8
:10174000F6FF5EC1F7FF0900F5CF14F00900F5CFF1
:1017500015F00900F5CF16F00900F5CF17F00900D4
:10176000F5CF18F00900F5CF19F00900F5CF1AF000
:101770000800F5CF1BF05FC1E9FF60C1EAFF14C0AC
:10178000EEFF15C0EEFF16C0EEFF17C0EEFF18C04B
:10179000EEFF19C0EEFF1AC0EEFF1BC0EEFF080EF1
:1017A0005F27000E6023080E5D27000E5E23080EE3
:0A17B000615F000E625B7CD712003F
:0617BA0000000000010028
:1017C00000260100BA17020000260100BA17030024
:1017D00000260200BA17040000260400BA1705000C
:1017E00000260100BA17060000260200BA170700FB
:1017F00000260400BA170010000504003020011074
:1018000000010100700102100001040071010510C7
:1018100000130400441D08100005180034200910AE
:10182000000504004D200A100005040052200C1091
:1018300000130200B40E0D1000130100460F171024
:1018400000130200220E1810000501005720181086
:101850000105040058201810020504005C2018102F
:101860000305040060201810040504006420001221
:1018700000050100C1200012011104002C0000121B
:10188000021104006C00001400050100BE200014C9
:1018900001130400BE0B001600050100BF20001656
:1018A00001050400B620001602050400BA20001647
:1018B00003050400BA20001604050400BA2000162F
:1018C00005050400BA20001606050400BA2000161B
:1018D00007050400BA20001608050400BA20001805
:1018E00000050100C020001801130400AC0C001812
:1018F00002130100920D001A00050100BF20001A1A
:1019000001050400B220001A02050400BA20001AE2
:1019100003050400BA20001A04050400BA20001AC6
:1019200005050400BA20001A06050400BA20001AB2
:1019300007050400BA20001A08050400BA20002098
:1019400000000100BA17002000000100BA170030A3
:1019500000000100BA17003000000100BA17004073
:1019600000000100BA17004000000100BA17005043
:1019700000000100BA17005000000100BA17006013
:10198000000101000701026000050100BE200260A5
:10199000010301000101036000050100BE20036096
:1019A000010301000001056000050100BE20056083
:1019B000010301000501066000050100BE2006606C
:1019C000010301000201076000050100BE2007605D
:1019D000010301000301086000050100BE2008604A
:1019E0000103010004010062000301000F01007007
:1019F00000000100BA17007000000100BA17008053
:101A000000000100BA17008000000100BA17009022
:0E1A100000000100BA17009000000100BA1794
:021A1E000101C4
:101A20004B6B4D6B4E6B4F6B506B516B526B536BE3
:101A3000546B556B566B4CC1A0F077EC09F08FECF2
:101A40000FF07CEC0EF056EC00F0E8EC07F0DCEC6C
:101A500008F06F6A0101348100019A6BDEEC09F035
:101A600071EC08F0608601014B81120062EC0AF013
:101A700001014BA147D000019F5144E0C00E9F15CA
:101A8000800A2DE0C00A1EE0400A3AE13F0E9F1591
:101A9000040A12E0060A08E0030A32E101014DA13E
:101AA0002FD0ACEC0FF02CD001014DA329D04BB5B9
:101AB00027D09CEC0EF024D001014DA721D051EC91
:101AC00008F01ED001014BB51BD03F0E00019F1541
:101AD00017E101014EA114D094EC01F011D00101E5
:101AE0004BB50ED04BA30CD03F0E00019F1508E163
:101AF00001014FA105D056B103D0568108EC0FF07B
:101B0000609EA49212000001010E9A6FDEEC09F0B3
:101B100001014BA142D000019F513FE00101515111
:101B200011E051A70DD04DA708D00001040E9A6F07
:101B3000DEEC09F071EC08F06086010151971200AB
:101B4000516B1200525113E04BB527D052A10DD06A
:101B50004EA108D00001400E9A6FDEEC09F0C8ECEF
:101B600000F06086010152911200526B1200535135
:101B700014E04BA312D04BB510D053A10DD050A1FF
:101B800008D00001800E9A6FDEEC09F021EC0FF016
:101B90006086010153911200536B1200F9EC09F0B9
:101BA00001014BA120D000019F511DE0C00E9F15E7
:101BB000800A09E0C00A03E0400A04E012000101C3
:101BC0004BB511D0120001014BA30DD04BB50BD07A
:101BD0003F0E00019F1501E01200010150A102D04B
:101BE00010EF07F01200120001014BA114D0505168
:101BF00004E050A102D00FEC07F001014D5104E0C8
:101C00004DA702D09BEC08F001014E5104E04EA11B
:081C100002D0B4EC00F0120058
:081C1800010166AB1ED065C19D
:101C200067F166C168F1D89067376837D890673731
:101C30006837D8906737683768C16AF1030E651551
:101C4000146EE00E671514100809686F6AC167F119
:101C500063C16AF164C169F117D0050E63C167F110
:101C600064C168F1000A06E00101D890673768375F
:101C7000E804FBE101016A6B67C169F168C167F1C2
:101C8000E00E6915686F696B66BF688966BD688517
:101C90001200010164A71CD064C114F063C115F0E7
:101CA000030ED89015321432E804FBE114C069F138
:101CB000200E010115106A6F030E6415146EFC0EE0
:101CC00069151410696F66C167F165C168F10ED0BE
:101CD00064C114F063C115F0050ED89015321432AA
:101CE000E804FBE114C067F115C068F1010164B5B7
:081CF0006A8D64B96A8F1200CD
:081CF8006FCFCDF00001020ED8
:101D00009A6F6BC19BF06CC19CF06DC19DF06EC170
:101D10009EF015EC0AF09FC06FF101016F5102E0D7
:101D200001014D8312006FCFCDF06FC19AF045ECE9
:101D30000AF001014D9312000F0E651402E17FECD1
:101D400005F0120001013E51020A1EE0030A01E003
:101D500012006BC163F16CC164F16DC165F16EC1BC
:101D600066F149EC0EF03CC1E9FF3DC1EAFFEE50DF
:101D7000EFCFEAFFE96E67C1EEFF68C1EEFF69C110
:101D8000EEFF6AC1EEFF12003CC1E9FF3DC1EAFF70
:101D9000EE50EFCFEAFFE96EEECF63F1EECF64F1E4
:101DA000EECF65F1EFCF66F10CEC0EF0010168B5F6
:101DB0000BD0B9DF67C16BF168C16CF169C16DF11E
:101DC0006AC16EF17CEF0EF00101120E3F6F12003E
:101DD0006FCFCDF00001800E9A6F1EC19BF01FC126
:101DE0009CF020C19DF021C19EF015EC0AF09FC02F
:101DF0002CF101012C5102E001014F8112006FCF43
:101E0000CDF02CC19AF045EC0AF001014F9112007F
:101E100027C1E9FF28C1EAFF66CFEEFF67CFEEFFDB
:101E200068CFEEFF69CFEEFF6ACFEEFF6BCFEEFF1C
:101E30006CCFEEFF6DCFEEFF0F0E65140101266F24
:101E4000120022C161FF23C162FF24C163FF25C1CB
:101E500064FF2AC1E9FF2BC1EAFFEECF66FFEECF98
:101E600067FFEECF68FFEECF69FFEECF6AFFEECFE0
:101E70006BFFEECF6CFFEFCF6DFF29C165FF120046
:101E80002A0EF66E000EF76E000EF86E00010900C5
:101E9000F550FA6F0900F550FB6F03E1FA6701D0C6
:101EA0003DD00900F550F56F0900F550F66F0900B7
:101EB000F550F76F09000900F550E96E0900F5507B
:101EC000EA6E090009000900F550F86F0900F550A5
:101ED000F96F09000900F6CFFCF0F7CFFDF0F8CF5D
:101EE000FEF0F5C0F6FFF6C0F7FFF7C0F8FF0001FF
:101EF000F85302E1F95307E00900F550EE6EF807D8
:101F0000F8E2F907F9D7FCC0F6FFFDC0F7FFFEC005
:0E1F1000F8FF0001FA07000EFB5BBFD71200BE
:021F1E006FCF83
:101F2000CDF00001010E9A6F00019B6B9C6B9D6BC5
:101F30009E6B15EC0AF09FC075F10101755102E02E
:101F400001014D8112006FCFCDF075C19AF045ECC3
:101F50000AF001014D9112000F0E6514020823E1F1
:101F600001014A51675C02E067501DE16650820A38
:101F700016E0030A12E0010A0BE0820A06E0030AF7
:101F800001E0120001014B8305D001014B8503D014
:101F900001014B934B9561EF10F064EC10F062EC93
:081FA00010F00FEC0DF012002F
:081FA80034EC10F001016B6B39
:101FB000100E6C6F6D6B6E6B0101020E4A6F0101AA
:101FC0004C6B0101200E366F4E0E376F0101386BDE
:101FD000396B01013A6B1EEC05F00FEC0DF051EC82
:101FE00010F09CEC05F03BEC10F00009F8E0F4EC8C
:041FF0000DF0F5D724
:0C1FF40006C012F006500B02F4CF05F0FE
:10200000F3CF04F007500C02F4CF07F0F3CF06F043
:102010000B02F3500526F4500622E86A07221250FC
:102020000C02F3500526F4500622E86A0722000C41
:102030004A9308004D6963726F6368697020434179
:102040004E6F70656E204465766963650056312E6B
:10205000300056312E300004785634122143658703
:08206000785634122143658714
:08206800470ED56E3C0ED66E4A
:10207000D58EF2941200F2A407D000013D0EFF6F3E
:0A208000E850D626F294010C000C83
:06208A001CEE00F02CEE3C
:1020900000F0F86A0F9C40EC0FF0D4EC0FF0FDD785
:0220A00012002C
:0E20A200DCEC08F036EC0DF083EC0DF0CEEF28
:0220B0000DF031
:0E20B20008010060080100620800000001083B
:0120C000021D
:0120C100031B
:0C20C2001200FF00120012008B701200D0
:00000001FF
